{
  "transactions": [
    {
      "hash": "0xf09b60ef4cbea1305a7e06dbcc5d86367622d95a98c608bbeadd52f248901cd5",
      "transactionType": "CALL",
      "contractName": null,
      "contractAddress": "0x8c7187932b862f962f1471c6e694aeffb9f5286d",
      "function": "mint(address,uint256)",
      "arguments": [
        "0xC31A5268a1d311d992D637E8cE925bfdcCEB4310",
        "2000000000000"
      ],
      "transaction": {
        "from": "0xc31a5268a1d311d992d637e8ce925bfdcceb4310",
        "to": "0x8c7187932b862f962f1471c6e694aeffb9f5286d",
        "gas": "0xc7d6",
        "value": "0x0",
        "input": "0x40c10f19000000000000000000000000c31a5268a1d311d992d637e8ce925bfdcceb4310000000000000000000000000000000000000000000000000000001d1a94a2000",
        "nonce": "0x2a",
        "chainId": "0x286"
      },
      "additionalContracts": [],
      "isFixedGasLimit": false
    },
    {
      "hash": "0xc02db34503d06ba1a432aa63b406e77c9b58b0a1fa1fb8f8c1766dde25ae1096",
      "transactionType": "CALL",
      "contractName": null,
      "contractAddress": "0xa6c289619fe99607f9c9e66d9d4625215159bbd5",
      "function": "mint(address,uint256)",
      "arguments": [
        "0xC31A5268a1d311d992D637E8cE925bfdcCEB4310",
        "100000000000000"
      ],
      "transaction": {
        "from": "0xc31a5268a1d311d992d637e8ce925bfdcceb4310",
        "to": "0xa6c289619fe99607f9c9e66d9d4625215159bbd5",
        "gas": "0xc7d6",
        "value": "0x0",
        "input": "0x40c10f19000000000000000000000000c31a5268a1d311d992d637e8ce925bfdcceb431000000000000000000000000000000000000000000000000000005af3107a4000",
        "nonce": "0x2b",
        "chainId": "0x286"
      },
      "additionalContracts": [],
      "isFixedGasLimit": false
    }
  ],
  "receipts": [
    {
      "status": "0x1",
      "cumulativeGasUsed": "0x90af",
      "logs": [
        {
          "address": "0x8c7187932b862f962f1471c6e694aeffb9f5286d",
          "topics": [
            "0xddf252ad1be2c89b69c2b068fc378daa952ba7f163c4a11628f55a4df523b3ef",
            "0x0000000000000000000000000000000000000000000000000000000000000000",
            "0x000000000000000000000000c31a5268a1d311d992d637e8ce925bfdcceb4310"
          ],
          "data": "0x000000000000000000000000000000000000000000000000000001d1a94a2000",
          "blockHash": "0x1c940b5b03cb1fedee80fd7ebe4501c3d028274e7bfc1304fa69b42c45b8cf34",
          "blockNumber": "0x62",
          "blockTimestamp": "0x69024530",
          "transactionHash": "0xf09b60ef4cbea1305a7e06dbcc5d86367622d95a98c608bbeadd52f248901cd5",
          "transactionIndex": "0x0",
          "logIndex": "0x0",
          "removed": false
        }
      ],
      "logsBloom": "0x00000000000000000000000000000000000000000000000000000000000000000000000000000000000000000000000000000000000000000000000000000000000000000000000000000008000000000000000000000004000000000000000000000000020000000010000000000800001000000000000000000010000000000001000000000000000000000000000000000000000000000000000000000000000000000000000000000000000000000000000000080000000000000000000000000002000000000000000000000000000000100000000000000000000020000000000000000000000000000000000000000000000000000000000000000000",
      "type": "0x2",
      "transactionHash": "0xf09b60ef4cbea1305a7e06dbcc5d86367622d95a98c608bbeadd52f248901cd5",
      "transactionIndex": "0x0",
      "blockHash": "0x1c940b5b03cb1fedee80fd7ebe4501c3d028274e7bfc1304fa69b42c45b8cf34",
      "blockNumber": "0x62",
      "gasUsed": "0x90af",
      "effectiveGasPrice": "0x1",
      "from": "0xc31a5268a1d311d992d637e8ce925bfdcceb4310",
      "to": "0x8c7187932b862f962f1471c6e694aeffb9f5286d",
      "contractAddress": null
    },
    {
      "status": "0x1",
      "cumulativeGasUsed": "0x90af",
      "logs": [
        {
          "address": "0xa6c289619fe99607f9c9e66d9d4625215159bbd5",
          "topics": [
            "0xddf252ad1be2c89b69c2b068fc378daa952ba7f163c4a11628f55a4df523b3ef",
            "0x0000000000000000000000000000000000000000000000000000000000000000",
            "0x000000000000000000000000c31a5268a1d311d992d637e8ce925bfdcceb4310"
          ],
          "data": "0x00000000000000000000000000000000000000000000000000005af3107a4000",
          "blockHash": "0xe425ace841f8accfe6596cd9797056f4fe26e0935d4f28f374fb31f6b88783f9",
          "blockNumber": "0x63",
          "blockTimestamp": "0x69024559",
          "transactionHash": "0xc02db34503d06ba1a432aa63b406e77c9b58b0a1fa1fb8f8c1766dde25ae1096",
          "transactionIndex": "0x0",
          "logIndex": "0x0",
          "removed": false
        }
      ],
      "logsBloom": "0x00000000000000000000000000000000000000000000000000000000000000000000000000000000000000000000000000000000000002000000000000100000000000000000000000000008000000000000000000000000000000000000000000000000020000000010000000000840000000000000000000000010000000000001000000000000000000000000000000000000000000000000000000000000000000000000000000000000000000000000000000000000000000000000000000000002000000000000000000000000000000100000000000000000000020000000000000000000000000000000000000000000000000000000000000000000",
      "type": "0x2",
      "transactionHash": "0xc02db34503d06ba1a432aa63b406e77c9b58b0a1fa1fb8f8c1766dde25ae1096",
      "transactionIndex": "0x0",
      "blockHash": "0xe425ace841f8accfe6596cd9797056f4fe26e0935d4f28f374fb31f6b88783f9",
      "blockNumber": "0x63",
      "gasUsed": "0x90af",
      "effectiveGasPrice": "0x1",
      "from": "0xc31a5268a1d311d992d637e8ce925bfdcceb4310",
      "to": "0xa6c289619fe99607f9c9e66d9d4625215159bbd5",
      "contractAddress": null
    }
  ],
  "libraries": [],
  "pending": [],
  "returns": {},
  "timestamp": 1761756619297,
  "chain": 646,
  "commit": "94621c9"
}